{
  "_format": "hh-sol-artifact-1",
  "contractName": "FarmMachinery",
  "sourceName": "contracts/FarmMachinery.sol",
  "abi": [
    {
      "anonymous": false,
      "inputs": [
        {
          "indexed": false,
          "internalType": "uint256",
          "name": "listingId",
          "type": "uint256"
        },
        {
          "indexed": false,
          "internalType": "address",
          "name": "farmer",
          "type": "address"
        },
        {
          "indexed": false,
          "internalType": "uint256",
          "name": "numDays",
          "type": "uint256"
        },
        {
          "indexed": false,
          "internalType": "uint256",
          "name": "amount",
          "type": "uint256"
        }
      ],
      "name": "Rented",
      "type": "event"
    },
    {
      "inputs": [],
      "name": "getMachineries",
      "outputs": [
        {
          "components": [
            {
              "internalType": "uint256",
              "name": "id",
              "type": "uint256"
            },
            {
              "internalType": "string",
              "name": "name",
              "type": "string"
            },
            {
              "internalType": "uint256",
              "name": "rentPrice",
              "type": "uint256"
            },
            {
              "internalType": "uint256",
              "name": "sharePrice",
              "type": "uint256"
            },
            {
              "internalType": "address",
              "name": "owner",
              "type": "address"
            }
          ],
          "internalType": "struct FarmMachinery.Machinery[]",
          "name": "",
          "type": "tuple[]"
        }
      ],
      "stateMutability": "view",
      "type": "function"
    },
    {
      "inputs": [
        {
          "internalType": "string",
          "name": "_name",
          "type": "string"
        },
        {
          "internalType": "uint256",
          "name": "_rentPrice",
          "type": "uint256"
        },
        {
          "internalType": "uint256",
          "name": "_sharePrice",
          "type": "uint256"
        }
      ],
      "name": "listMachinery",
      "outputs": [],
      "stateMutability": "nonpayable",
      "type": "function"
    },
    {
      "inputs": [
        {
          "internalType": "uint256",
          "name": "",
          "type": "uint256"
        }
      ],
      "name": "machineries",
      "outputs": [
        {
          "internalType": "uint256",
          "name": "id",
          "type": "uint256"
        },
        {
          "internalType": "string",
          "name": "name",
          "type": "string"
        },
        {
          "internalType": "uint256",
          "name": "rentPrice",
          "type": "uint256"
        },
        {
          "internalType": "uint256",
          "name": "sharePrice",
          "type": "uint256"
        },
        {
          "internalType": "address",
          "name": "owner",
          "type": "address"
        }
      ],
      "stateMutability": "view",
      "type": "function"
    },
    {
      "inputs": [],
      "name": "machineryCounter",
      "outputs": [
        {
          "internalType": "uint256",
          "name": "",
          "type": "uint256"
        }
      ],
      "stateMutability": "view",
      "type": "function"
    },
    {
      "inputs": [
        {
          "internalType": "uint256",
          "name": "listingId",
          "type": "uint256"
        },
        {
          "internalType": "uint256",
          "name": "numDays",
          "type": "uint256"
        }
      ],
      "name": "rent",
      "outputs": [],
      "stateMutability": "payable",
      "type": "function"
    },
    {
      "inputs": [
        {
          "internalType": "uint256",
          "name": "_machineryId",
          "type": "uint256"
        },
        {
          "internalType": "bool",
          "name": "_rent",
          "type": "bool"
        }
      ],
      "name": "rentOrShareMachinery",
      "outputs": [],
      "stateMutability": "payable",
      "type": "function"
    }
  ],
  "bytecode": "0x608060405234801561001057600080fd5b50610fea806100206000396000f3fe6080604052600436106100555760003560e01c80633213956f1461005a578063783a112b146100765780639050258614610092578063b46802e0146100bd578063c901b8c6146100e6578063ce61388a14610111575b600080fd5b610074600480360381019061006f919061089b565b610152565b005b610090600480360381019061008b91906108d7565b6102ee565b005b34801561009e57600080fd5b506100a7610372565b6040516100b49190610c62565b60405180910390f35b3480156100c957600080fd5b506100e460048036038101906100df919061080b565b610378565b005b3480156100f257600080fd5b506100fb610483565b6040516101089190610bc0565b60405180910390f35b34801561011d57600080fd5b5061013860048036038101906101339190610872565b6105e8565b604051610149959493929190610cc2565b60405180910390f35b6000805490508210610199576040517f08c379a000000000000000000000000000000000000000000000000000000000815260040161019090610be2565b60405180910390fd5b60008083815481106101d4577f4e487b7100000000000000000000000000000000000000000000000000000000600052603260045260246000fd5b906000526020600020906005020190508115610236578060020154341015610231576040517f08c379a000000000000000000000000000000000000000000000000000000000815260040161022890610c22565b60405180910390fd5b61027e565b806003015434101561027d576040517f08c379a000000000000000000000000000000000000000000000000000000000815260040161027490610c42565b60405180910390fd5b5b8060040160009054906101000a900473ffffffffffffffffffffffffffffffffffffffff1673ffffffffffffffffffffffffffffffffffffffff166108fc349081150290604051600060405180830381858888f193505050501580156102e8573d6000803e3d6000fd5b50505050565b60003411610331576040517f08c379a000000000000000000000000000000000000000000000000000000000815260040161032890610c02565b60405180910390fd5b7fcea8ef445f087e63df6f242396764cabddc0c40f6ed03ede0a0ce1feb5404b71823383346040516103669493929190610c7d565b60405180910390a15050565b60015481565b60006040518060a0016040528060015481526020018581526020018481526020018381526020013373ffffffffffffffffffffffffffffffffffffffff1681525090806001815401808255809150506001900390600052602060002090600502016000909190919091506000820151816000015560208201518160010190805190602001906104089291906106d6565b50604082015181600201556060820151816003015560808201518160040160006101000a81548173ffffffffffffffffffffffffffffffffffffffff021916908373ffffffffffffffffffffffffffffffffffffffff16021790555050506001600081548092919061047990610e9f565b9190505550505050565b60606000805480602002602001604051908101604052809291908181526020016000905b828210156105df57838290600052602060002090600502016040518060a0016040529081600082015481526020016001820180546104e490610e6d565b80601f016020809104026020016040519081016040528092919081815260200182805461051090610e6d565b801561055d5780601f106105325761010080835404028352916020019161055d565b820191906000526020600020905b81548152906001019060200180831161054057829003601f168201915b5050505050815260200160028201548152602001600382015481526020016004820160009054906101000a900473ffffffffffffffffffffffffffffffffffffffff1673ffffffffffffffffffffffffffffffffffffffff1673ffffffffffffffffffffffffffffffffffffffff1681525050815260200190600101906104a7565b50505050905090565b600081815481106105f857600080fd5b906000526020600020906005020160009150905080600001549080600101805461062190610e6d565b80601f016020809104026020016040519081016040528092919081815260200182805461064d90610e6d565b801561069a5780601f1061066f5761010080835404028352916020019161069a565b820191906000526020600020905b81548152906001019060200180831161067d57829003601f168201915b5050505050908060020154908060030154908060040160009054906101000a900473ffffffffffffffffffffffffffffffffffffffff16905085565b8280546106e290610e6d565b90600052602060002090601f016020900481019282610704576000855561074b565b82601f1061071d57805160ff191683800117855561074b565b8280016001018555821561074b579182015b8281111561074a57825182559160200191906001019061072f565b5b509050610758919061075c565b5090565b5b8082111561077557600081600090555060010161075d565b5090565b600061078c61078784610d4d565b610d1c565b9050828152602081018484840111156107a457600080fd5b6107af848285610e2b565b509392505050565b6000813590506107c681610f86565b92915050565b600082601f8301126107dd57600080fd5b81356107ed848260208601610779565b91505092915050565b60008135905061080581610f9d565b92915050565b60008060006060848603121561082057600080fd5b600084013567ffffffffffffffff81111561083a57600080fd5b610846868287016107cc565b9350506020610857868287016107f6565b9250506040610868868287016107f6565b9150509250925092565b60006020828403121561088457600080fd5b6000610892848285016107f6565b91505092915050565b600080604083850312156108ae57600080fd5b60006108bc858286016107f6565b92505060206108cd858286016107b7565b9150509250929050565b600080604083850312156108ea57600080fd5b60006108f8858286016107f6565b9250506020610909858286016107f6565b9150509250929050565b600061091f8383610b2c565b905092915050565b61093081610de3565b82525050565b61093f81610de3565b82525050565b600061095082610d8d565b61095a8185610db0565b93508360208202850161096c85610d7d565b8060005b858110156109a857848403895281516109898582610913565b945061099483610da3565b925060208a01995050600181019050610970565b50829750879550505050505092915050565b60006109c582610d98565b6109cf8185610dc1565b93506109df818560208601610e3a565b6109e881610f75565b840191505092915050565b60006109fe82610d98565b610a088185610dd2565b9350610a18818560208601610e3a565b610a2181610f75565b840191505092915050565b6000610a39601483610dd2565b91507f496e76616c6964206d616368696e6572792049440000000000000000000000006000830152602082019050919050565b6000610a79601e83610dd2565b91507f5061796d656e74206d7573742062652067726561746572207468616e203000006000830152602082019050919050565b6000610ab9601b83610dd2565b91507f496e73756666696369656e742066756e647320666f722072656e7400000000006000830152602082019050919050565b6000610af9601c83610dd2565b91507f496e73756666696369656e742066756e647320666f72207368617265000000006000830152602082019050919050565b600060a083016000830151610b446000860182610ba2565b5060208301518482036020860152610b5c82826109ba565b9150506040830151610b716040860182610ba2565b506060830151610b846060860182610ba2565b506080830151610b976080860182610927565b508091505092915050565b610bab81610e21565b82525050565b610bba81610e21565b82525050565b60006020820190508181036000830152610bda8184610945565b905092915050565b60006020820190508181036000830152610bfb81610a2c565b9050919050565b60006020820190508181036000830152610c1b81610a6c565b9050919050565b60006020820190508181036000830152610c3b81610aac565b9050919050565b60006020820190508181036000830152610c5b81610aec565b9050919050565b6000602082019050610c776000830184610bb1565b92915050565b6000608082019050610c926000830187610bb1565b610c9f6020830186610936565b610cac6040830185610bb1565b610cb96060830184610bb1565b95945050505050565b600060a082019050610cd76000830188610bb1565b8181036020830152610ce981876109f3565b9050610cf86040830186610bb1565b610d056060830185610bb1565b610d126080830184610936565b9695505050505050565b6000604051905081810181811067ffffffffffffffff82111715610d4357610d42610f46565b5b8060405250919050565b600067ffffffffffffffff821115610d6857610d67610f46565b5b601f19601f8301169050602081019050919050565b6000819050602082019050919050565b600081519050919050565b600081519050919050565b6000602082019050919050565b600082825260208201905092915050565b600082825260208201905092915050565b600082825260208201905092915050565b6000610dee82610e01565b9050919050565b60008115159050919050565b600073ffffffffffffffffffffffffffffffffffffffff82169050919050565b6000819050919050565b82818337600083830152505050565b60005b83811015610e58578082015181840152602081019050610e3d565b83811115610e67576000848401525b50505050565b60006002820490506001821680610e8557607f821691505b60208210811415610e9957610e98610f17565b5b50919050565b6000610eaa82610e21565b91507fffffffffffffffffffffffffffffffffffffffffffffffffffffffffffffffff821415610edd57610edc610ee8565b5b600182019050919050565b7f4e487b7100000000000000000000000000000000000000000000000000000000600052601160045260246000fd5b7f4e487b7100000000000000000000000000000000000000000000000000000000600052602260045260246000fd5b7f4e487b7100000000000000000000000000000000000000000000000000000000600052604160045260246000fd5b6000601f19601f8301169050919050565b610f8f81610df5565b8114610f9a57600080fd5b50565b610fa681610e21565b8114610fb157600080fd5b5056fea2646970667358221220aad61327aa3b8f3f5264a5174c026ad03794b5cb4822ac2639aa34bbaf595b1b64736f6c63430008000033",
  "linkReferences": {},
  "deployedLinkReferences": {}
}